:10000000A7C00000C1C00000BFC00000BDC000000C
:10001000BBC00000B9C00000B7C00000B5C0000000
:10002000B3C00000B1C0000091C40000ADC000002A
:10003000ABC00000A9C00000A7C00000A5C0000020
:10004000A3C00000A1C000009FC000009DC0000030
:100050009BC0000099C0000097C0000095C0000040
:1000600093C0000091C000008FC000008DC0000050
:100070008BC0000089C0000087C0000085C0000060
:1000800083C0000081C000007FC000007DC0000070
:100090007BC0000079C0000077C0000075C0000080
:1000A00073C0000071C000006FC00000054109016D
:1000B000A1011A01022A08021500250175019508FF
:1000C00081020902A1020903150026FF00750895A7
:1000D000239103C0C01201100100000008EB03834C
:1000E0001101000102000109022900010100C032D2
:1000F000090400000203000000092111010001228F
:10010000290007058103080004070583030800048C
:100110000403090418034E0065007700200048001E
:100120006100700074006900630073000000200328
:10013000540061006300740069006C0065002000D9
:1001400044006900730070006C00610079000000D9
:1001500011241FBECFEFDAE0DEBFCDBF11E0A0E07B
:10016000B1E0E8EEF2E102C005900D92A834B107CB
:10017000D9F711E0A8E4B1E001C01D92A73BB10797
:10018000E1F794D00C9472093BCFFB01DC0104C071
:100190008D910190801921F441505040C8F7881B7F
:1001A000990B0895FB01DC0102C001900D924150B2
:1001B0005040D8F70895DC0101C06D934150504084
:1001C000E0F70895982F9F709A3030F48091C8001E
:1001D00085FFFCCF905D05C08091C80085FFFCCFF6
:1001E000995C9093CE0008951F93182F82958F707D
:1001F000E9DF812F8F70E6DF1F9108951F93182F7D
:10020000892FF2DF812FF0DF1F910895089508955F
:100210008091450190914601009729F001979093B4
:10022000460180934501089508950F931F93A801F7
:10023000EDE6F1E060936D0100936E015283339619
:10024000CF01B901AFDF809170018093940180915B
:10025000710180936C0180917201809395011F91CF
:100260000F91089587E391E0ACC687E391E088D6CB
:10027000E2EEF0E0808184608083089584B7877F18
:1002800084BF88E10FB6F8948093600010926000FC
:100290000FBE80E090E020E80FB6F8942093610054
:1002A000809361000FBE549A559A33C3EF92FF9228
:1002B0000F931F93CF93DF93E1DF789488E090E072
:1002C0009093CD008093CC0086E08093CA0010927A
:1002D000C80088E18093C900539A5A9A80E090E060
:1002E000E3D780E091E0D3D780E9E82E81E0F82ED3
:1002F00087E391E077D561D515B81BB880916E0181
:1003000090916F010097A1F3ADE6B1E020E030E0FD
:10031000AC014A0F5B1F18C013968C91139789305C
:1003200091F480ED97E0F7013197F1F70197D9F754
:100330005C9A5D9A80ED97E0F7013197F1F70197AC
:10034000D9F721E030E01196A417B50729F721303D
:10035000310571F684E191E09AD780916D0144DF17
:100360008FE191E094D780916E0190916F0146DF0B
:100370008DE291E08CD700E711E0C0E0D0E008C04A
:10038000F80181918F0130DF80E391E080D72196E1
:1003900080916E0190916F01C817D90788F382E3AD
:1003A00091E075D7A5CFDA019330A1F0943028F40D
:1003B000913041F0923069F50AC0913201F19232E8
:1003C00041F522C0E5EDF0E022E130E026C0E7EEA5
:1003D000F0E01CC0813049F0813018F08230C9F45F
:1003E0000AC0E0E1F1E0849103C0E4E1F1E084912E
:1003F000282F30E012C0EEE2F1E08491F9CFE9EF6E
:10040000F0E029E030E009C0ECEAF0E029E230E079
:1004100004C0E0E0F0E020E030E0ED93FC93C9019F
:1004200008959C014091A1015091A20146175707E0
:1004300018F4F90190E043C06115710511F0AB01AA
:10044000F8CF8091E8008E778093E80040E050E09C
:10045000F0CF80919A01882309F447C0853009F4D0
:1004600046C08091E80083FD44C08091E80082FD91
:1004700036C08091E80080FF22C08091F300909107
:10048000F200782F60E0292F30E0262B372B07C0B1
:1004900081918093F100415050402F5F3F4F4115B3
:1004A000510519F02830310598F390E028303105D6
:1004B00009F491E08091E8008E778093E80041157F
:1004C000510539F6992329F60AC080919A018823AB
:1004D00061F0853061F08091E80083FD0AC0809171
:1004E000E80082FFF2CF80E0089582E0089583E083
:1004F000089581E008959C016115710529F48091AA
:10050000E8008B778093E800F90127C080919A0179
:10051000882399F1853099F18091E80083FF02C02A
:1005200081E008958091E80082FFF0CF06C08091BD
:10053000F10081936150704059F02091F300809157
:10054000F200322F20E090E0822B932B892B79F759
:100550008091E8008B778093E80061157105B1F612
:1005600006C080919A01882341F0853041F0809146
:10057000E80080FFF6CF80E0089582E0089583E0F0
:1005800008959C014091A1015091A201461757077F
:1005900018F4F90190E044C06115710511F0AB0148
:1005A000F8CF8091E8008E778093E80040E050E03B
:1005B000F0CF80919A01882309F448C0853009F46E
:1005C00047C08091E80083FD45C08091E80082FD2E
:1005D00037C08091E80080FF23C08091F3009091A4
:1005E000F200782F60E0292F30E0262B372B08C04F
:1005F00084918093F1003196415050402F5F3F4FDE
:100600004115510519F02830310590F390E028305C
:10061000310509F491E08091E8008E778093E8003D
:100620004115510531F6992321F60AC080919A01AE
:10063000882361F0853061F08091E80083FD0AC075
:100640008091E80082FFF2CF80E0089582E0089573
:1006500083E0089581E00895BF92CF92DF92EF92F8
:10066000FF920F931F93CF93DF93182F092F7B01D6
:100670006A01D9D0B82E8823B1F5812F902F9C0123
:10068000E901C114D10439F0F60180819181E81AA1
:10069000F90AC80FD91F00E010E022C08091E800DD
:1006A00085FD16C08091E8008E778093E80085D3A1
:1006B000C114D10449F0F60180819181800F911F0E
:1006C0009183808385E010C0AED0882349F00CC0B0
:1006D00089918093F1000894E108F1080F5F1F4FA2
:1006E000E114F104D9F68B2DDF91CF911F910F9179
:1006F000FF90EF90DF90CF90BF900895382F282F74
:100700002EC0822F8F708093E900231721F4762F5B
:10071000942F50E006C07091EC009091ED00509144
:10072000F00091FF1BC08091EB008E7F8093EB0067
:100730008091ED008D7F8093ED008091EB008160D2
:100740008093EB007093EC009093ED005093F000D9
:100750008091EE0087FD02C080E008952F5F273072
:1007600080F23F703093E90081E008950F931F936A
:10077000CF93DF93062FEC0110E02AC098819923D4
:1007800029F16B81E981FA812C81892F8F70873063
:1007900018F5223010F452E001C056E040E028E0A5
:1007A00030E003C04F5F220F331F2E173F07D0F3F7
:1007B0006295660F660F607C991F9927991F692BB8
:1007C0004295407F452B9ADF882331F01F5F2596A5
:1007D0001017A0F281E001C080E0DF91CF911F915E
:1007E0000F91089580919B0188239CF404C080910F
:1007F0009A018823B9F08091E80082FFF8CF8091B8
:10080000E8008B778093E800089580919A0188230F
:1008100049F08091E80080FFF8CF8091E8008E7762
:100820008093E80008954091E4005091E50024E6AB
:100830008091EC0080FF24C08091E80080FD1EC004
:1008400080919A01882311F482E00895853011F493
:1008500083E008958091EB0085FF02C081E0089558
:100860008091E4009091E5008417950709F3222315
:1008700011F484E008952150AC01DACF80E00895AE
:100880008091E80082FFDCCFF9CFEF92FF920F93C7
:100890001F934FD056D008ED10E0F80180818F777C
:1008A000808380818068808380818F7D808319BC74
:1008B00010929A011092960110929801109297014D
:1008C00080EEE82EF12CF70180818B7F8083F80188
:1008D00080818160808380E060E042E00FDFE1EEB4
:1008E000F0E080818E7F8083E2EEF0E080818160A5
:1008F0008083808188608083F70180818E7F808300
:10090000F8018081806180831F910F91FF90EF90AB
:100910000895E8EDF0E080818F7E8083E7EDF0E0E0
:1009200080818160808384E082BF81E0809399012F
:10093000ACCFE8EDF0E080818E7F80831092E20002
:1009400008951092DA001092E10008951F920F921C
:100950000FB60F9211242F933F934F935F936F9392
:100960007F938F939F93AF93BF93EF93FF93809168
:10097000E10082FF0AC08091E20082FF06C0809100
:10098000E1008B7F8093E10043DC8091DA0080FFFF
:100990001DC08091D80080FF19C08091DA008E7F41
:1009A0008093DA008091D90080FF0CC080E189BD7E
:1009B00082E189BD09B400FEFDCF81E080939A01F8
:1009C00025DC04C019BC10929A0121DC8091E10061
:1009D00080FF18C08091E20080FF14C08091E20087
:1009E0008E7F8093E2008091E20080618093E2003C
:1009F0008091D80080628093D80019BC85E08093F4
:100A00009A01DAD18091E10084FF2FC08091E20049
:100A100084FF2BC080E189BD82E189BD09B400FE5D
:100A2000FDCF8091D8008F7D8093D8008091E10028
:100A30008F7E8093E1008091E2008F7E8093E200C0
:100A40008091E20081608093E2008091960188238A
:100A500011F084E007C08091E30087FD02C081E0CF
:100A600001C083E080939A01A7D18091E10083FFC8
:100A700022C08091E20083FF1EC08091E100877F49
:100A80008093E10082E080939A0110929601809118
:100A9000E1008E7F8093E1008091E2008E7F809361
:100AA000E2008091E20080618093E20080E060E0FB
:100AB00042E024DE81D1FF91EF91BF91AF919F91F0
:100AC0008F917F916F915F914F913F912F910F90F7
:100AD0000FBE0F901F9018951F93DF93CF93CDB744
:100AE000DEB7AC970FB6F894DEBF0FBECDBFEBE913
:100AF000F1E08091F100819321E0E33AF207C9F738
:100B0000B1DB8091E80083FF3FC180919B01309170
:100B10009C01353009F48DC0363040F43130E1F1BC
:100B2000313070F0333009F02FC136C0383009F45D
:100B3000FDC0393009F40CC1363009F025C19CC024
:100B4000803821F0823809F01FC108C090919701C8
:100B5000809198018823B1F0926014C080919F0128
:100B60008F70873008F010C18093E9008091EB000E
:100B700090E025E0969587952A95E1F7982F91705A
:100B80001092E9008091E800877F8093E8009093BD
:100B9000F1001092F100D5C0882319F0823009F0DD
:100BA000F3C090E08F719070009721F0029709F0E8
:100BB000EBC00CC080919D01813009F0E5C010921E
:100BC0009801333081F5809398012DC080919D016B
:100BD000882349F520919F012F70822F8150863004
:100BE00008F0D2C02093E9008091EB0080FF1BC089
:100BF000333021F48091EB00806213C08091EB00D0
:100C000080618093EB0081E090E002C0880F991F23
:100C10002A95E2F78093EA001092EA008091EB00B7
:100C200088608093EB001092E9008091E800877F54
:100C30008BC0882309F0A8C010919D011F77809177
:100C4000E3008078812B8093E3008091E800877F28
:100C50008093E800C7DD8091E80080FFFCCF8091A1
:100C6000E30080688093E300112311F482E001C067
:100C700083E080939A0188C08058823008F084C055
:100C800080919D0190919E0123E08C3D920709F097
:100C900033C083E08C838AE28B837FB7F894DE01D4
:100CA00015966EE040E050E011E2E62FF0E0109380
:100CB0005700849140FF03C082958F706F5F8F70E3
:100CC000282F30E08A3018F0C901C79602C0C90148
:100CD000C0968D939D934F5F5F4F4431510529F727
:100CE0007FBF8091E800877F8093E800CE01039664
:100CF0006AE270E096DB14C060919F017091A001E0
:100D0000AE014F5F5F4F4FDBBC01009709F43CC061
:100D10008091E800877F8093E80089819A8131DCA7
:100D20008091E8008B778093E8002EC0803861F5D1
:100D30008091E800877F8093E800809196018093FE
:100D4000F1008091E8008E778093E8004BDD1CC0B5
:100D50008823D1F490919D019230B0F48091E80005
:100D6000877F8093E800909396013CDD8091960107
:100D7000882331F48091E30087FD02C081E001C047
:100D800084E080939A0171DA8091E80083FF0AC0C1
:100D90008091E800877F8093E8008091EB0080627B
:100DA0008093EB00AC960FB6F894DEBF0FBECDBFBC
:100DB000CF91DF911F91089508951F9380919A011B
:100DC000882371F01091E9008091EC001092E90005
:100DD0008091E80083FF01C07FDE1F701093E9005F
:100DE0001F9108954F925F926F927F928F929F9280
:100DF000AF92BF92CF92DF92EF92FF920F931F9329
:100E0000DF93CF9300D00F92CDB7DEB77C016DB6E4
:100E10007EB680919A01843009F099C02091E40057
:100E20003091E500F701828593858217930709F4D5
:100E30008EC081818F708093E9008091E80085FFEA
:100E400086C05DB64EB6408550E08DB79EB7841B18
:100E5000950B0FB6F8949EBF0FBE8DBF0DB71EB792
:100E60000F5F1F4F19821B821A82C02E912EC8015C
:100E700060E070E050E09FD9C701BE016F5F7F4F17
:100E800040E098018E010E5F1F4FCED9882EF701EA
:100E900084859585892B19F4AA24BB240BC020E0F6
:100EA000F70186859785892B09F021E081E02827C5
:100EB000A22EBB24F701068117810115110511F43B
:100EC000DD2412C04A815B818C2D992DB8015DD93A
:100ED000DD24009711F0DD24D394F7014085C8018B
:100EE0006C2D792D50E05ED98A819B81892B01F18F
:100EF000882021F4DD2011F4AB28D1F0F70184859E
:100F000095859787868781818F708093E900898195
:100F1000882311F08093F1006A817B818C2D992DBB
:100F200040E050E099DB8091E8008E778093E80004
:100F30008091E4009091E500F70193878287252D49
:100F4000342DC9010FB6F8949EBF0FBE8DBF0FB6EA
:100F5000F8947EBE0FBE6DBE0F900F900F90CF9194
:100F6000DF911F910F91FF90EF90DF90CF90BF9096
:100F7000AF909F908F907F906F905F904F9008956B
:100F8000CF93DF93DC010996FC0187E0EF01199212
:100F90008A95E9F781E019968C93199784EF91E08F
:100FA0001D969C938E931C9783E014968C931497B4
:100FB000CD01019661E0DADB811181E0DF91CF9113
:100FC00008956F927F928F929F92AF92BF92CF922D
:100FD000DF92EF92FF920F931F93DF93CF9300D096
:100FE0000F92CDB7DEB76C016DB67EB68091E8008A
:100FF00083FF18C1F601808190E020919F0130911C
:10100000A0012817390709F00DC180919C01833098
:1010100009F4B0C0843030F4813071F0823009F0CE
:1010200001C1E4C08A3009F4C9C08B3009F4B3C0EF
:10103000893009F0F7C05BC080919B01813A09F0CB
:10104000F1C09DB68EB61B821A8280919D011091CF
:101050009E018983F601408550E08DB79EB7841BC1
:10106000950B0FB6F8949EBF0FBE8DBFEDB6FEB6C2
:101070000894E11CF11CBE2CAF2CC70160E070E0AD
:1010800050E099D81150C601BE016F5F7F4F412FCC
:1010900097018E010E5F1F4FC7D8F6012681378159
:1010A0002115310529F04085C901B70150E07AD8F2
:1010B0001092E9008091E800877F8093E8008981A1
:1010C000882311F08093F1006A817B818B2D9A2D0A
:1010D000A8D98091E8008B778093E800292D382DDE
:1010E000C9010FB6F8949EBF0FBE8DBF9BC0809103
:1010F0009B01813209F096C09DB68EB60091A10188
:101100001091A201A0909D01B0909E018DB79EB755
:10111000801B910B0FB6F8949EBF0FBE8DBFEDB62E
:10112000FEB60894E11CF11C8091E800877F809353
:10113000E800C701B801DFD98091E8008E7780937D
:10114000E80080E090E0AA2011F081E090E0BA94FD
:10115000E80EF91E081B190BC6016A2D4B2D9701CD
:1011600064D8892D982D9C010FB6F8943EBF0FBE10
:101170002DBF58C080919B01813A09F053C08091E6
:10118000E800877F8093E8008091E80080FFFCCF33
:10119000F60181853FC080919B01813209F042C0F8
:1011A0008091E800877F8093E8001CDB90E08091CD
:1011B0009D01811191E0F601918734C080919B01DE
:1011C000813281F58091E800877F8093E8000ADB17
:1011D00080919D0190919E01807036E09695879553
:1011E0003A95E1F7F601958784871CC080919B01B1
:1011F000813AC1F48091E800877F8093E800809174
:10120000E80080FFFCCFF60184859585969587954B
:10121000969587958093F1008091E8008E77809372
:10122000E800E0DA0FB6F8947EBE0FBE6DBE0F90F8
:101230000F900F90CF91DF911F910F91FF90EF9042
:10124000DF90CF90BF90AF909F908F907F906F90E6
:101250000895982F8091C80085FFFCCF9093CE0011
:1012600080E090E008958091C80087FD03C02EEFD4
:101270003FEF0BC08091C80087FD03C02FEF3FEF09
:1012800004C08091CE00282F30E0C9010895FC01F0
:1012900007C08091C80085FFFCCF9093CE003196A7
:1012A00090819923B1F70895FC01009759F483EADE
:1012B00091E09093B2018093B1019093B401809337
:1012C000B301FC018EE0DF011D928A95E9F783E00E
:1012D000838389E299E09187808783E399E093870C
:0812E00082870895F894FFCF06
:1012E800456E746572696E67206D61696E206C6FFA
:1012F8006F700A005265706F727449443A20000A90
:101308005265706F727453697A653A20000D0A004D
:1013180020000D0A0D0A0000810800000148012480
:081328000000000000000000BD
:00000001FF
